{
  "contractName": "ZombieFeeding",
  "abi": [
    {
      "anonymous": false,
      "inputs": [
        {
          "indexed": false,
          "internalType": "uint256",
          "name": "zombieId",
          "type": "uint256"
        },
        {
          "indexed": false,
          "internalType": "string",
          "name": "name",
          "type": "string"
        },
        {
          "indexed": false,
          "internalType": "uint256",
          "name": "dna",
          "type": "uint256"
        }
      ],
      "name": "NewZombie",
      "type": "event"
    },
    {
      "anonymous": false,
      "inputs": [
        {
          "indexed": true,
          "internalType": "address",
          "name": "previousOwner",
          "type": "address"
        },
        {
          "indexed": true,
          "internalType": "address",
          "name": "newOwner",
          "type": "address"
        }
      ],
      "name": "OwnershipTransferred",
      "type": "event"
    },
    {
      "inputs": [
        {
          "internalType": "string",
          "name": "_name",
          "type": "string"
        }
      ],
      "name": "createRandomZombie",
      "outputs": [],
      "stateMutability": "nonpayable",
      "type": "function"
    },
    {
      "inputs": [],
      "name": "isOwner",
      "outputs": [
        {
          "internalType": "bool",
          "name": "",
          "type": "bool"
        }
      ],
      "stateMutability": "view",
      "type": "function",
      "constant": true
    },
    {
      "inputs": [],
      "name": "owner",
      "outputs": [
        {
          "internalType": "address",
          "name": "",
          "type": "address"
        }
      ],
      "stateMutability": "view",
      "type": "function",
      "constant": true
    },
    {
      "inputs": [],
      "name": "renounceOwnership",
      "outputs": [],
      "stateMutability": "nonpayable",
      "type": "function"
    },
    {
      "inputs": [
        {
          "internalType": "address",
          "name": "newOwner",
          "type": "address"
        }
      ],
      "name": "transferOwnership",
      "outputs": [],
      "stateMutability": "nonpayable",
      "type": "function"
    },
    {
      "inputs": [
        {
          "internalType": "uint256",
          "name": "",
          "type": "uint256"
        }
      ],
      "name": "zombieToOwner",
      "outputs": [
        {
          "internalType": "address",
          "name": "",
          "type": "address"
        }
      ],
      "stateMutability": "view",
      "type": "function",
      "constant": true
    },
    {
      "inputs": [
        {
          "internalType": "uint256",
          "name": "",
          "type": "uint256"
        }
      ],
      "name": "zombies",
      "outputs": [
        {
          "internalType": "string",
          "name": "name",
          "type": "string"
        },
        {
          "internalType": "uint256",
          "name": "dna",
          "type": "uint256"
        },
        {
          "internalType": "uint32",
          "name": "level",
          "type": "uint32"
        },
        {
          "internalType": "uint32",
          "name": "readyTime",
          "type": "uint32"
        },
        {
          "internalType": "uint16",
          "name": "winCount",
          "type": "uint16"
        },
        {
          "internalType": "uint16",
          "name": "lossCount",
          "type": "uint16"
        }
      ],
      "stateMutability": "view",
      "type": "function",
      "constant": true
    },
    {
      "inputs": [
        {
          "internalType": "address",
          "name": "_address",
          "type": "address"
        }
      ],
      "name": "setKittyContractAddress",
      "outputs": [],
      "stateMutability": "nonpayable",
      "type": "function"
    },
    {
      "inputs": [
        {
          "internalType": "uint256",
          "name": "_zombieId",
          "type": "uint256"
        },
        {
          "internalType": "uint256",
          "name": "_kittyId",
          "type": "uint256"
        }
      ],
      "name": "feedOnKitty",
      "outputs": [],
      "stateMutability": "nonpayable",
      "type": "function"
    }
  ],
  "bytecode": "0x60806040526010600155600154600a6200001a919062000280565b600255620151806003553480156200003157600080fd5b50336000806101000a81548173ffffffffffffffffffffffffffffffffffffffff021916908373ffffffffffffffffffffffffffffffffffffffff16021790555060008054906101000a900473ffffffffffffffffffffffffffffffffffffffff1673ffffffffffffffffffffffffffffffffffffffff16600073ffffffffffffffffffffffffffffffffffffffff167f8be0079c531659141344cd1fd0a4f28419497f9722a3daafe3b4186f6b6457e060405160405180910390a3620002d1565b7f4e487b7100000000000000000000000000000000000000000000000000000000600052601160045260246000fd5b60008160011c9050919050565b6000808291508390505b60018511156200018157808604811115620001595762000158620000f3565b5b6001851615620001695780820291505b8081029050620001798562000122565b945062000139565b94509492505050565b6000826200019c57600190506200026f565b81620001ac57600090506200026f565b8160018114620001c55760028114620001d05762000206565b60019150506200026f565b60ff841115620001e557620001e4620000f3565b5b8360020a915084821115620001ff57620001fe620000f3565b5b506200026f565b5060208310610133831016604e8410600b8410161715620002405782820a9050838111156200023a5762000239620000f3565b5b6200026f565b6200024f84848460016200012f565b92509050818404811115620002695762000268620000f3565b5b81810290505b9392505050565b6000819050919050565b60006200028d8262000276565b91506200029a8362000276565b9250620002c97fffffffffffffffffffffffffffffffffffffffffffffffffffffffffffffffff84846200018a565b905092915050565b6115aa80620002e16000396000f3fe608060405234801561001057600080fd5b50600436106100935760003560e01c8063715018a611610066578063715018a6146101355780637bff0a011461013f5780638da5cb5b1461015b5780638f32d59b14610179578063f2fde38b1461019757610093565b806317a7f4cc146100985780632052465e146100b4578063528b7b8f146100e95780635f4623f114610119575b600080fd5b6100b260048036038101906100ad9190610d1d565b6101b3565b005b6100ce60048036038101906100c99190610d5d565b6102d1565b6040516100e096959493929190610e6e565b60405180910390f35b61010360048036038101906100fe9190610d5d565b6103e1565b6040516101109190610f17565b60405180910390f35b610133600480360381019061012e9190610f5e565b610414565b005b61013d610469565b005b610159600480360381019061015491906110c0565b610538565b005b6101636105b9565b6040516101709190610f17565b60405180910390f35b6101816105e2565b60405161018e9190611124565b60405180910390f35b6101b160048036038101906101ac9190610f5e565b610639565b005b6000600760009054906101000a900473ffffffffffffffffffffffffffffffffffffffff1673ffffffffffffffffffffffffffffffffffffffff1663e98b7f4d836040518263ffffffff1660e01b8152600401610210919061113f565b61014060405180830381865afa15801561022e573d6000803e3d6000fd5b505050506040513d601f19601f82011682018060405250810190610252919061119b565b909192939495969798509091929394959697509091929394959650909192939495509091929394509091929350909192509091509050809150506102cc83826040518060400160405280600581526020017f6b69747479000000000000000000000000000000000000000000000000000000815250610656565b505050565b600481815481106102e157600080fd5b9060005260206000209060030201600091509050806000018054610304906112a9565b80601f0160208091040260200160405190810160405280929190818152602001828054610330906112a9565b801561037d5780601f106103525761010080835404028352916020019161037d565b820191906000526020600020905b81548152906001019060200180831161036057829003601f168201915b5050505050908060010154908060020160009054906101000a900463ffffffff16908060020160049054906101000a900463ffffffff16908060020160089054906101000a900461ffff169080600201600a9054906101000a900461ffff16905086565b60056020528060005260406000206000915054906101000a900473ffffffffffffffffffffffffffffffffffffffff1681565b61041c6105e2565b61042557600080fd5b80600760006101000a81548173ffffffffffffffffffffffffffffffffffffffff021916908373ffffffffffffffffffffffffffffffffffffffff16021790555050565b6104716105e2565b61047a57600080fd5b600073ffffffffffffffffffffffffffffffffffffffff1660008054906101000a900473ffffffffffffffffffffffffffffffffffffffff1673ffffffffffffffffffffffffffffffffffffffff167f8be0079c531659141344cd1fd0a4f28419497f9722a3daafe3b4186f6b6457e060405160405180910390a360008060006101000a81548173ffffffffffffffffffffffffffffffffffffffff021916908373ffffffffffffffffffffffffffffffffffffffff160217905550565b6000600660003373ffffffffffffffffffffffffffffffffffffffff1673ffffffffffffffffffffffffffffffffffffffff168152602001908152602001600020541461058457600080fd5b600061058f826107f2565b905060648161059e9190611309565b816105a99190611369565b90506105b58282610837565b5050565b60008060009054906101000a900473ffffffffffffffffffffffffffffffffffffffff16905090565b60008060009054906101000a900473ffffffffffffffffffffffffffffffffffffffff1673ffffffffffffffffffffffffffffffffffffffff163373ffffffffffffffffffffffffffffffffffffffff1614905090565b6106416105e2565b61064a57600080fd5b61065381610ab4565b50565b826005600082815260200190815260200160002060009054906101000a900473ffffffffffffffffffffffffffffffffffffffff1673ffffffffffffffffffffffffffffffffffffffff163373ffffffffffffffffffffffffffffffffffffffff16146106c257600080fd5b6000600485815481106106d8576106d761139d565b5b906000526020600020906003020190506106f181610baa565b6106fa57600080fd5b600254846107089190611309565b93506000600285836001015461071e91906113cc565b6107289190611422565b9050604051602001610739906114aa565b604051602081830303815290604052805190602001208460405160200161076091906114f0565b60405160208183030381529060405280519060200120036107a257606360648261078a9190611309565b826107959190611369565b61079f91906113cc565b90505b6107e16040518060400160405280600681526020017f4e6f4e616d65000000000000000000000000000000000000000000000000000081525082610837565b6107ea82610bd1565b505050505050565b6000808260405160200161080691906114f0565b6040516020818303038152906040528051906020012060001c90506002548161082f9190611309565b915050919050565b60006040518060c00160405280848152602001838152602001600163ffffffff1681526020016003544261086b91906113cc565b63ffffffff168152602001600061ffff168152602001600061ffff168152509050600481908060018154018082558091505060019003906000526020600020906003020160009091909190915060008201518160000190805190602001906108d4929190610c30565b506020820151816001015560408201518160020160006101000a81548163ffffffff021916908363ffffffff16021790555060608201518160020160046101000a81548163ffffffff021916908363ffffffff16021790555060808201518160020160086101000a81548161ffff021916908361ffff16021790555060a082015181600201600a6101000a81548161ffff021916908361ffff1602179055505050600060016004805490506109899190611369565b9050336005600083815260200190815260200160002060006101000a81548173ffffffffffffffffffffffffffffffffffffffff021916908373ffffffffffffffffffffffffffffffffffffffff160217905550610a306001600660003373ffffffffffffffffffffffffffffffffffffffff1673ffffffffffffffffffffffffffffffffffffffff16815260200190815260200160002054610c0490919063ffffffff16565b600660003373ffffffffffffffffffffffffffffffffffffffff1673ffffffffffffffffffffffffffffffffffffffff168152602001908152602001600020819055507f88f026aacbbecc90c18411df4b1185fd8d9be2470f1962f192bf84a27d0704b7818585604051610aa693929190611507565b60405180910390a150505050565b600073ffffffffffffffffffffffffffffffffffffffff168173ffffffffffffffffffffffffffffffffffffffff1603610aed57600080fd5b8073ffffffffffffffffffffffffffffffffffffffff1660008054906101000a900473ffffffffffffffffffffffffffffffffffffffff1673ffffffffffffffffffffffffffffffffffffffff167f8be0079c531659141344cd1fd0a4f28419497f9722a3daafe3b4186f6b6457e060405160405180910390a3806000806101000a81548173ffffffffffffffffffffffffffffffffffffffff021916908373ffffffffffffffffffffffffffffffffffffffff16021790555050565b6000428260020160049054906101000a900463ffffffff1663ffffffff1611159050919050565b60035442610bdf91906113cc565b8160020160046101000a81548163ffffffff021916908363ffffffff16021790555050565b6000808284610c1391906113cc565b905083811015610c2657610c25611545565b5b8091505092915050565b828054610c3c906112a9565b90600052602060002090601f016020900481019282610c5e5760008555610ca5565b82601f10610c7757805160ff1916838001178555610ca5565b82800160010185558215610ca5579182015b82811115610ca4578251825591602001919060010190610c89565b5b509050610cb29190610cb6565b5090565b5b80821115610ccf576000816000905550600101610cb7565b5090565b6000604051905090565b600080fd5b600080fd5b6000819050919050565b610cfa81610ce7565b8114610d0557600080fd5b50565b600081359050610d1781610cf1565b92915050565b60008060408385031215610d3457610d33610cdd565b5b6000610d4285828601610d08565b9250506020610d5385828601610d08565b9150509250929050565b600060208284031215610d7357610d72610cdd565b5b6000610d8184828501610d08565b91505092915050565b600081519050919050565b600082825260208201905092915050565b60005b83811015610dc4578082015181840152602081019050610da9565b83811115610dd3576000848401525b50505050565b6000601f19601f8301169050919050565b6000610df582610d8a565b610dff8185610d95565b9350610e0f818560208601610da6565b610e1881610dd9565b840191505092915050565b610e2c81610ce7565b82525050565b600063ffffffff82169050919050565b610e4b81610e32565b82525050565b600061ffff82169050919050565b610e6881610e51565b82525050565b600060c0820190508181036000830152610e888189610dea565b9050610e976020830188610e23565b610ea46040830187610e42565b610eb16060830186610e42565b610ebe6080830185610e5f565b610ecb60a0830184610e5f565b979650505050505050565b600073ffffffffffffffffffffffffffffffffffffffff82169050919050565b6000610f0182610ed6565b9050919050565b610f1181610ef6565b82525050565b6000602082019050610f2c6000830184610f08565b92915050565b610f3b81610ef6565b8114610f4657600080fd5b50565b600081359050610f5881610f32565b92915050565b600060208284031215610f7457610f73610cdd565b5b6000610f8284828501610f49565b91505092915050565b600080fd5b600080fd5b7f4e487b7100000000000000000000000000000000000000000000000000000000600052604160045260246000fd5b610fcd82610dd9565b810181811067ffffffffffffffff82111715610fec57610feb610f95565b5b80604052505050565b6000610fff610cd3565b905061100b8282610fc4565b919050565b600067ffffffffffffffff82111561102b5761102a610f95565b5b61103482610dd9565b9050602081019050919050565b82818337600083830152505050565b600061106361105e84611010565b610ff5565b90508281526020810184848401111561107f5761107e610f90565b5b61108a848285611041565b509392505050565b600082601f8301126110a7576110a6610f8b565b5b81356110b7848260208601611050565b91505092915050565b6000602082840312156110d6576110d5610cdd565b5b600082013567ffffffffffffffff8111156110f4576110f3610ce2565b5b61110084828501611092565b91505092915050565b60008115159050919050565b61111e81611109565b82525050565b60006020820190506111396000830184611115565b92915050565b60006020820190506111546000830184610e23565b92915050565b61116381611109565b811461116e57600080fd5b50565b6000815190506111808161115a565b92915050565b60008151905061119581610cf1565b92915050565b6000806000806000806000806000806101408b8d0312156111bf576111be610cdd565b5b60006111cd8d828e01611171565b9a505060206111de8d828e01611171565b99505060406111ef8d828e01611186565b98505060606112008d828e01611186565b97505060806112118d828e01611186565b96505060a06112228d828e01611186565b95505060c06112338d828e01611186565b94505060e06112448d828e01611186565b9350506101006112568d828e01611186565b9250506101206112688d828e01611186565b9150509295989b9194979a5092959850565b7f4e487b7100000000000000000000000000000000000000000000000000000000600052602260045260246000fd5b600060028204905060018216806112c157607f821691505b6020821081036112d4576112d361127a565b5b50919050565b7f4e487b7100000000000000000000000000000000000000000000000000000000600052601260045260246000fd5b600061131482610ce7565b915061131f83610ce7565b92508261132f5761132e6112da565b5b828206905092915050565b7f4e487b7100000000000000000000000000000000000000000000000000000000600052601160045260246000fd5b600061137482610ce7565b915061137f83610ce7565b9250828210156113925761139161133a565b5b828203905092915050565b7f4e487b7100000000000000000000000000000000000000000000000000000000600052603260045260246000fd5b60006113d782610ce7565b91506113e283610ce7565b9250827fffffffffffffffffffffffffffffffffffffffffffffffffffffffffffffffff038211156114175761141661133a565b5b828201905092915050565b600061142d82610ce7565b915061143883610ce7565b925082611448576114476112da565b5b828204905092915050565b600081905092915050565b7f6b69747479000000000000000000000000000000000000000000000000000000600082015250565b6000611494600583611453565b915061149f8261145e565b600582019050919050565b60006114b582611487565b9150819050919050565b60006114ca82610d8a565b6114d48185611453565b93506114e4818560208601610da6565b80840191505092915050565b60006114fc82846114bf565b915081905092915050565b600060608201905061151c6000830186610e23565b818103602083015261152e8185610dea565b905061153d6040830184610e23565b949350505050565b7f4e487b7100000000000000000000000000000000000000000000000000000000600052600160045260246000fdfea2646970667358221220624a4d398eb2d37fc67cbcf09add16522b60aa18a6f437d1f6beaaff5ffa502f64736f6c634300080d0033",
  "immutableReferences": {},
  "source": "// SPDX-License-Identifier: UNLICENSED\npragma solidity >=0.4.22 <0.9.0;\n\nimport \"./ZombieFactory.sol\";\n\nabstract contract KittyInterface {\n  function getKitty(uint256 _id) external virtual view returns (\n    bool isGestating,\n    bool isReady,\n    uint256 cooldownIndex,\n    uint256 nextActionAt,\n    uint256 siringWithId,\n    uint256 birthTime,\n    uint256 matronId,\n    uint256 sireId,\n    uint256 generation,\n    uint256 genes\n  );\n}\n\ncontract ZombieFeeding is ZombieFactory {\n\n  KittyInterface kittyContract;\n\n  modifier onlyOwnerOf(uint _zombieId) {\n    require(msg.sender == zombieToOwner[_zombieId]);\n    _;\n  }\n\n  function setKittyContractAddress(address _address) external onlyOwner {\n    kittyContract = KittyInterface(_address);\n  }\n\n  function _triggerCooldown(Zombie storage _zombie) internal {\n    _zombie.readyTime = uint32(block.timestamp + cooldownTime);\n  }\n\n  function _isReady(Zombie storage _zombie) internal view returns (bool) {\n      return (_zombie.readyTime <= block.timestamp);\n  }\n\n  function feedAndMultiply(uint _zombieId, uint _targetDna, string memory _species) internal onlyOwnerOf(_zombieId) {\n    Zombie storage myZombie = zombies[_zombieId];\n    require(_isReady(myZombie));\n    _targetDna = _targetDna % dnaModulus;\n    uint newDna = (myZombie.dna + _targetDna) / 2;\n    if (keccak256(abi.encodePacked(_species)) == keccak256(abi.encodePacked(\"kitty\"))) {\n      newDna = newDna - newDna % 100 + 99;\n    }\n    _createZombie(\"NoName\", newDna);\n    _triggerCooldown(myZombie);\n  }\n\n  function feedOnKitty(uint _zombieId, uint _kittyId) public {\n    uint kittyDna;\n    (,,,,,,,,,kittyDna) = kittyContract.getKitty(_kittyId);\n    feedAndMultiply(_zombieId, kittyDna, \"kitty\");\n  }\n}\n",
  "sourcePath": "/home/paulo/source/personal/blockchain/cryptozombies/src/contracts/ZombieFeeding.sol",
  "compiler": {
    "name": "solc",
    "version": "0.8.13+commit.abaa5c0e.Emscripten.clang"
  },
  "schemaVersion": "3.4.6",
  "updatedAt": "2022-04-13T14:11:17.830Z",
  "networkType": "ethereum",
  "devdoc": {
    "kind": "dev",
    "methods": {
      "isOwner()": {
        "returns": {
          "_0": "true if `msg.sender` is the owner of the contract."
        }
      },
      "owner()": {
        "returns": {
          "_0": "the address of the owner."
        }
      },
      "renounceOwnership()": {
        "details": "Allows the current owner to relinquish control of the contract."
      },
      "transferOwnership(address)": {
        "details": "Allows the current owner to transfer control of the contract to a newOwner.",
        "params": {
          "newOwner": "The address to transfer ownership to."
        }
      }
    },
    "version": 1
  },
  "userdoc": {
    "kind": "user",
    "methods": {
      "renounceOwnership()": {
        "notice": "Renouncing to ownership will leave the contract without an owner. It will not be possible to call the functions with the `onlyOwner` modifier anymore."
      }
    },
    "version": 1
  }
}