{
  "contractName": "ZombieOwnership",
  "abi": [
    {
      "anonymous": false,
      "inputs": [
        {
          "indexed": true,
          "internalType": "address",
          "name": "_owner",
          "type": "address"
        },
        {
          "indexed": true,
          "internalType": "address",
          "name": "_approved",
          "type": "address"
        },
        {
          "indexed": true,
          "internalType": "uint256",
          "name": "_tokenId",
          "type": "uint256"
        }
      ],
      "name": "Approval",
      "type": "event"
    },
    {
      "anonymous": false,
      "inputs": [
        {
          "indexed": false,
          "internalType": "uint256",
          "name": "zombieId",
          "type": "uint256"
        },
        {
          "indexed": false,
          "internalType": "string",
          "name": "name",
          "type": "string"
        },
        {
          "indexed": false,
          "internalType": "uint256",
          "name": "dna",
          "type": "uint256"
        }
      ],
      "name": "NewZombie",
      "type": "event"
    },
    {
      "anonymous": false,
      "inputs": [
        {
          "indexed": true,
          "internalType": "address",
          "name": "previousOwner",
          "type": "address"
        },
        {
          "indexed": true,
          "internalType": "address",
          "name": "newOwner",
          "type": "address"
        }
      ],
      "name": "OwnershipTransferred",
      "type": "event"
    },
    {
      "anonymous": false,
      "inputs": [
        {
          "indexed": true,
          "internalType": "address",
          "name": "_from",
          "type": "address"
        },
        {
          "indexed": true,
          "internalType": "address",
          "name": "_to",
          "type": "address"
        },
        {
          "indexed": true,
          "internalType": "uint256",
          "name": "_tokenId",
          "type": "uint256"
        }
      ],
      "name": "Transfer",
      "type": "event"
    },
    {
      "inputs": [
        {
          "internalType": "uint256",
          "name": "_zombieId",
          "type": "uint256"
        },
        {
          "internalType": "uint256",
          "name": "_targetId",
          "type": "uint256"
        }
      ],
      "name": "attack",
      "outputs": [],
      "stateMutability": "nonpayable",
      "type": "function"
    },
    {
      "inputs": [
        {
          "internalType": "uint256",
          "name": "_zombieId",
          "type": "uint256"
        },
        {
          "internalType": "uint256",
          "name": "_newDna",
          "type": "uint256"
        }
      ],
      "name": "changeDna",
      "outputs": [],
      "stateMutability": "nonpayable",
      "type": "function"
    },
    {
      "inputs": [
        {
          "internalType": "uint256",
          "name": "_zombieId",
          "type": "uint256"
        },
        {
          "internalType": "string",
          "name": "_newName",
          "type": "string"
        }
      ],
      "name": "changeName",
      "outputs": [],
      "stateMutability": "nonpayable",
      "type": "function"
    },
    {
      "inputs": [
        {
          "internalType": "string",
          "name": "_name",
          "type": "string"
        }
      ],
      "name": "createRandomZombie",
      "outputs": [],
      "stateMutability": "nonpayable",
      "type": "function"
    },
    {
      "inputs": [
        {
          "internalType": "uint256",
          "name": "_zombieId",
          "type": "uint256"
        },
        {
          "internalType": "uint256",
          "name": "_kittyId",
          "type": "uint256"
        }
      ],
      "name": "feedOnKitty",
      "outputs": [],
      "stateMutability": "nonpayable",
      "type": "function"
    },
    {
      "inputs": [
        {
          "internalType": "address",
          "name": "_owner",
          "type": "address"
        }
      ],
      "name": "getZombiesByOwner",
      "outputs": [
        {
          "internalType": "uint256[]",
          "name": "",
          "type": "uint256[]"
        }
      ],
      "stateMutability": "view",
      "type": "function",
      "constant": true
    },
    {
      "inputs": [],
      "name": "isOwner",
      "outputs": [
        {
          "internalType": "bool",
          "name": "",
          "type": "bool"
        }
      ],
      "stateMutability": "view",
      "type": "function",
      "constant": true
    },
    {
      "inputs": [
        {
          "internalType": "uint256",
          "name": "_zombieId",
          "type": "uint256"
        }
      ],
      "name": "levelUp",
      "outputs": [],
      "stateMutability": "payable",
      "type": "function",
      "payable": true
    },
    {
      "inputs": [],
      "name": "owner",
      "outputs": [
        {
          "internalType": "address",
          "name": "",
          "type": "address"
        }
      ],
      "stateMutability": "view",
      "type": "function",
      "constant": true
    },
    {
      "inputs": [],
      "name": "renounceOwnership",
      "outputs": [],
      "stateMutability": "nonpayable",
      "type": "function"
    },
    {
      "inputs": [
        {
          "internalType": "address",
          "name": "_address",
          "type": "address"
        }
      ],
      "name": "setKittyContractAddress",
      "outputs": [],
      "stateMutability": "nonpayable",
      "type": "function"
    },
    {
      "inputs": [
        {
          "internalType": "uint256",
          "name": "_fee",
          "type": "uint256"
        }
      ],
      "name": "setLevelUpFee",
      "outputs": [],
      "stateMutability": "nonpayable",
      "type": "function"
    },
    {
      "inputs": [
        {
          "internalType": "address",
          "name": "newOwner",
          "type": "address"
        }
      ],
      "name": "transferOwnership",
      "outputs": [],
      "stateMutability": "nonpayable",
      "type": "function"
    },
    {
      "inputs": [],
      "name": "withdraw",
      "outputs": [],
      "stateMutability": "nonpayable",
      "type": "function"
    },
    {
      "inputs": [
        {
          "internalType": "uint256",
          "name": "",
          "type": "uint256"
        }
      ],
      "name": "zombieToOwner",
      "outputs": [
        {
          "internalType": "address",
          "name": "",
          "type": "address"
        }
      ],
      "stateMutability": "view",
      "type": "function",
      "constant": true
    },
    {
      "inputs": [
        {
          "internalType": "uint256",
          "name": "",
          "type": "uint256"
        }
      ],
      "name": "zombies",
      "outputs": [
        {
          "internalType": "string",
          "name": "name",
          "type": "string"
        },
        {
          "internalType": "uint256",
          "name": "dna",
          "type": "uint256"
        },
        {
          "internalType": "uint32",
          "name": "level",
          "type": "uint32"
        },
        {
          "internalType": "uint32",
          "name": "readyTime",
          "type": "uint32"
        },
        {
          "internalType": "uint16",
          "name": "winCount",
          "type": "uint16"
        },
        {
          "internalType": "uint16",
          "name": "lossCount",
          "type": "uint16"
        }
      ],
      "stateMutability": "view",
      "type": "function",
      "constant": true
    },
    {
      "inputs": [
        {
          "internalType": "address",
          "name": "_owner",
          "type": "address"
        }
      ],
      "name": "balanceOf",
      "outputs": [
        {
          "internalType": "uint256",
          "name": "",
          "type": "uint256"
        }
      ],
      "stateMutability": "view",
      "type": "function",
      "constant": true
    },
    {
      "inputs": [
        {
          "internalType": "uint256",
          "name": "_tokenId",
          "type": "uint256"
        }
      ],
      "name": "ownerOf",
      "outputs": [
        {
          "internalType": "address",
          "name": "",
          "type": "address"
        }
      ],
      "stateMutability": "view",
      "type": "function",
      "constant": true
    },
    {
      "inputs": [
        {
          "internalType": "address",
          "name": "_from",
          "type": "address"
        },
        {
          "internalType": "address",
          "name": "_to",
          "type": "address"
        },
        {
          "internalType": "uint256",
          "name": "_tokenId",
          "type": "uint256"
        }
      ],
      "name": "transferFrom",
      "outputs": [],
      "stateMutability": "payable",
      "type": "function",
      "payable": true
    },
    {
      "inputs": [
        {
          "internalType": "address",
          "name": "_approved",
          "type": "address"
        },
        {
          "internalType": "uint256",
          "name": "_tokenId",
          "type": "uint256"
        }
      ],
      "name": "approve",
      "outputs": [],
      "stateMutability": "payable",
      "type": "function",
      "payable": true
    }
  ],
  "bytecode": "0x60806040526010600155600154600a6200001a919062000295565b6002556201518060035566038d7ea4c6800060085560006009556046600a553480156200004657600080fd5b50336000806101000a81548173ffffffffffffffffffffffffffffffffffffffff021916908373ffffffffffffffffffffffffffffffffffffffff16021790555060008054906101000a900473ffffffffffffffffffffffffffffffffffffffff1673ffffffffffffffffffffffffffffffffffffffff16600073ffffffffffffffffffffffffffffffffffffffff167f8be0079c531659141344cd1fd0a4f28419497f9722a3daafe3b4186f6b6457e060405160405180910390a3620002e6565b7f4e487b7100000000000000000000000000000000000000000000000000000000600052601160045260246000fd5b60008160011c9050919050565b6000808291508390505b600185111562000196578086048111156200016e576200016d62000108565b5b60018516156200017e5780820291505b80810290506200018e8562000137565b94506200014e565b94509492505050565b600082620001b1576001905062000284565b81620001c1576000905062000284565b8160018114620001da5760028114620001e5576200021b565b600191505062000284565b60ff841115620001fa57620001f962000108565b5b8360020a91508482111562000214576200021362000108565b5b5062000284565b5060208310610133831016604e8410600b8410161715620002555782820a9050838111156200024f576200024e62000108565b5b62000284565b62000264848484600162000144565b925090508184048111156200027e576200027d62000108565b5b81810290505b9392505050565b6000819050919050565b6000620002a2826200028b565b9150620002af836200028b565b9250620002de7fffffffffffffffffffffffffffffffffffffffffffffffffffffffffffffffff84846200019f565b905092915050565b6128d080620002f66000396000f3fe60806040526004361061011f5760003560e01c80636352211e116100a05780638f32d59b116100645780638f32d59b146103ab578063c39cbef1146103d6578063ccf670f8146103ff578063e1fa763814610428578063f2fde38b146104515761011f565b80636352211e146102c657806370a0823114610303578063715018a6146103405780637bff0a01146103575780638da5cb5b146103805761011f565b80633ccfd60b116100e75780633ccfd60b146101e35780634412e104146101fa578063528b7b8f146102375780635f4623f1146102745780635faf28801461029d5761011f565b8063095ea7b3146101245780630ce90ec21461014057806317a7f4cc1461015c5780632052465e1461018557806323b872dd146101c7575b600080fd5b61013e60048036038101906101399190611d0e565b61047a565b005b61015a60048036038101906101559190611d4e565b610598565b005b34801561016857600080fd5b50610183600480360381019061017e9190611d7b565b61063b565b005b34801561019157600080fd5b506101ac60048036038101906101a79190611d4e565b610759565b6040516101be96959493929190611e9f565b60405180910390f35b6101e160048036038101906101dc9190611f07565b610869565b005b3480156101ef57600080fd5b506101f861094d565b005b34801561020657600080fd5b50610221600480360381019061021c9190611f5a565b6109b4565b60405161022e9190612045565b60405180910390f35b34801561024357600080fd5b5061025e60048036038101906102599190611d4e565b610b06565b60405161026b9190612076565b60405180910390f35b34801561028057600080fd5b5061029b60048036038101906102969190611f5a565b610b39565b005b3480156102a957600080fd5b506102c460048036038101906102bf9190611d7b565b610b8e565b005b3480156102d257600080fd5b506102ed60048036038101906102e89190611d4e565b610c76565b6040516102fa9190612076565b60405180910390f35b34801561030f57600080fd5b5061032a60048036038101906103259190611f5a565b610cb3565b6040516103379190612091565b60405180910390f35b34801561034c57600080fd5b50610355610cfc565b005b34801561036357600080fd5b5061037e600480360381019061037991906121e1565b610dcb565b005b34801561038c57600080fd5b50610395610e4c565b6040516103a29190612076565b60405180910390f35b3480156103b757600080fd5b506103c0610e75565b6040516103cd9190612245565b60405180910390f35b3480156103e257600080fd5b506103fd60048036038101906103f891906122c0565b610ecc565b005b34801561040b57600080fd5b5061042660048036038101906104219190611d4e565b610fc0565b005b34801561043457600080fd5b5061044f600480360381019061044a9190611d7b565b610fdb565b005b34801561045d57600080fd5b5061047860048036038101906104739190611f5a565b611275565b005b806005600082815260200190815260200160002060009054906101000a900473ffffffffffffffffffffffffffffffffffffffff1673ffffffffffffffffffffffffffffffffffffffff163373ffffffffffffffffffffffffffffffffffffffff16146104e657600080fd5b82600b600084815260200190815260200160002060006101000a81548173ffffffffffffffffffffffffffffffffffffffff021916908373ffffffffffffffffffffffffffffffffffffffff160217905550818373ffffffffffffffffffffffffffffffffffffffff163373ffffffffffffffffffffffffffffffffffffffff167f8c5be1e5ebec7d5bd14f71427d1e84f3dd0314c0f7b2291e5b200ac8c7c3b92560405160405180910390a4505050565b60085434146105a657600080fd5b6105f56001600483815481106105bf576105be612320565b5b906000526020600020906003020160020160009054906101000a900463ffffffff1663ffffffff1661129290919063ffffffff16565b6004828154811061060957610608612320565b5b906000526020600020906003020160020160006101000a81548163ffffffff021916908363ffffffff16021790555050565b6000600760009054906101000a900473ffffffffffffffffffffffffffffffffffffffff1673ffffffffffffffffffffffffffffffffffffffff1663e98b7f4d836040518263ffffffff1660e01b81526004016106989190612091565b61014060405180830381865afa1580156106b6573d6000803e3d6000fd5b505050506040513d601f19601f820116820180604052508101906106da9190612390565b9091929394959697985090919293949596975090919293949596509091929394955090919293945090919293509091925090915090508091505061075483826040518060400160405280600581526020017f6b697474790000000000000000000000000000000000000000000000000000008152506112ca565b505050565b6004818154811061076957600080fd5b906000526020600020906003020160009150905080600001805461078c9061249e565b80601f01602080910402602001604051908101604052809291908181526020018280546107b89061249e565b80156108055780601f106107da57610100808354040283529160200191610805565b820191906000526020600020905b8154815290600101906020018083116107e857829003601f168201915b5050505050908060010154908060020160009054906101000a900463ffffffff16908060020160049054906101000a900463ffffffff16908060020160089054906101000a900461ffff169080600201600a9054906101000a900461ffff16905086565b3373ffffffffffffffffffffffffffffffffffffffff166005600083815260200190815260200160002060009054906101000a900473ffffffffffffffffffffffffffffffffffffffff1673ffffffffffffffffffffffffffffffffffffffff16148061093457503373ffffffffffffffffffffffffffffffffffffffff16600b600083815260200190815260200160002060009054906101000a900473ffffffffffffffffffffffffffffffffffffffff1673ffffffffffffffffffffffffffffffffffffffff16145b61093d57600080fd5b610948838383611466565b505050565b610955610e75565b61095e57600080fd5b6000610968610e4c565b90508073ffffffffffffffffffffffffffffffffffffffff166108fc479081150290604051600060405180830381858888f193505050501580156109b0573d6000803e3d6000fd5b5050565b60606000600660008473ffffffffffffffffffffffffffffffffffffffff1673ffffffffffffffffffffffffffffffffffffffff1681526020019081526020016000205467ffffffffffffffff811115610a1157610a106120b6565b5b604051908082528060200260200182016040528015610a3f5781602001602082028036833780820191505090505b5090506000805b600480549050811015610afb578473ffffffffffffffffffffffffffffffffffffffff166005600083815260200190815260200160002060009054906101000a900473ffffffffffffffffffffffffffffffffffffffff1673ffffffffffffffffffffffffffffffffffffffff1603610ae85780838381518110610acd57610acc612320565b5b6020026020010181815250508180610ae4906124fe565b9250505b8080610af3906124fe565b915050610a46565b508192505050919050565b60056020528060005260406000206000915054906101000a900473ffffffffffffffffffffffffffffffffffffffff1681565b610b41610e75565b610b4a57600080fd5b80600760006101000a81548173ffffffffffffffffffffffffffffffffffffffff021916908373ffffffffffffffffffffffffffffffffffffffff16021790555050565b6014828160048281548110610ba657610ba5612320565b5b906000526020600020906003020160020160009054906101000a900463ffffffff1663ffffffff161015610bd957600080fd5b836005600082815260200190815260200160002060009054906101000a900473ffffffffffffffffffffffffffffffffffffffff1673ffffffffffffffffffffffffffffffffffffffff163373ffffffffffffffffffffffffffffffffffffffff1614610c4557600080fd5b8360048681548110610c5a57610c59612320565b5b9060005260206000209060030201600101819055505050505050565b60006005600083815260200190815260200160002060009054906101000a900473ffffffffffffffffffffffffffffffffffffffff169050919050565b6000600660008373ffffffffffffffffffffffffffffffffffffffff1673ffffffffffffffffffffffffffffffffffffffff168152602001908152602001600020549050919050565b610d04610e75565b610d0d57600080fd5b600073ffffffffffffffffffffffffffffffffffffffff1660008054906101000a900473ffffffffffffffffffffffffffffffffffffffff1673ffffffffffffffffffffffffffffffffffffffff167f8be0079c531659141344cd1fd0a4f28419497f9722a3daafe3b4186f6b6457e060405160405180910390a360008060006101000a81548173ffffffffffffffffffffffffffffffffffffffff021916908373ffffffffffffffffffffffffffffffffffffffff160217905550565b6000600660003373ffffffffffffffffffffffffffffffffffffffff1673ffffffffffffffffffffffffffffffffffffffff1681526020019081526020016000205414610e1757600080fd5b6000610e2282611644565b9050606481610e319190612575565b81610e3c91906125a6565b9050610e488282611689565b5050565b60008060009054906101000a900473ffffffffffffffffffffffffffffffffffffffff16905090565b60008060009054906101000a900473ffffffffffffffffffffffffffffffffffffffff1673ffffffffffffffffffffffffffffffffffffffff163373ffffffffffffffffffffffffffffffffffffffff1614905090565b6002838160048281548110610ee457610ee3612320565b5b906000526020600020906003020160020160009054906101000a900463ffffffff1663ffffffff161015610f1757600080fd5b846005600082815260200190815260200160002060009054906101000a900473ffffffffffffffffffffffffffffffffffffffff1673ffffffffffffffffffffffffffffffffffffffff163373ffffffffffffffffffffffffffffffffffffffff1614610f8357600080fd5b848460048881548110610f9957610f98612320565b5b90600052602060002090600302016000019190610fb7929190611b3d565b50505050505050565b610fc8610e75565b610fd157600080fd5b8060088190555050565b816005600082815260200190815260200160002060009054906101000a900473ffffffffffffffffffffffffffffffffffffffff1673ffffffffffffffffffffffffffffffffffffffff163373ffffffffffffffffffffffffffffffffffffffff161461104757600080fd5b60006004848154811061105d5761105c612320565b5b9060005260206000209060030201905060006004848154811061108357611082612320565b5b90600052602060002090600302019050600061109f6064611906565b9050600a5481116111d3576110d460018460020160089054906101000a900461ffff1661ffff1661196690919063ffffffff16565b8360020160086101000a81548161ffff021916908361ffff16021790555061112060018460020160009054906101000a900463ffffffff1663ffffffff1661129290919063ffffffff16565b8360020160006101000a81548163ffffffff021916908363ffffffff16021790555061116c600183600201600a9054906101000a900461ffff1661ffff1661196690919063ffffffff16565b82600201600a6101000a81548161ffff021916908361ffff1602179055506111ce8683600101546040518060400160405280600681526020017f7a6f6d62696500000000000000000000000000000000000000000000000000008152506112ca565b61126d565b6111fd600184600201600a9054906101000a900461ffff1661ffff1661196690919063ffffffff16565b83600201600a6101000a81548161ffff021916908361ffff16021790555061124560018360020160089054906101000a900461ffff1661ffff1661196690919063ffffffff16565b8260020160086101000a81548161ffff021916908361ffff16021790555061126c8361199a565b5b505050505050565b61127d610e75565b61128657600080fd5b61128f816119cd565b50565b60008082846112a191906125da565b90508363ffffffff168163ffffffff1610156112c0576112bf612614565b5b8091505092915050565b826005600082815260200190815260200160002060009054906101000a900473ffffffffffffffffffffffffffffffffffffffff1673ffffffffffffffffffffffffffffffffffffffff163373ffffffffffffffffffffffffffffffffffffffff161461133657600080fd5b60006004858154811061134c5761134b612320565b5b9060005260206000209060030201905061136581611ac3565b61136e57600080fd5b6002548461137c9190612575565b9350600060028583600101546113929190612643565b61139c9190612699565b90506040516020016113ad90612721565b60405160208183030381529060405280519060200120846040516020016113d49190612767565b60405160208183030381529060405280519060200120036114165760636064826113fe9190612575565b8261140991906125a6565b6114139190612643565b90505b6114556040518060400160405280600681526020017f4e6f4e616d65000000000000000000000000000000000000000000000000000081525082611689565b61145e8261199a565b505050505050565b6114b96001600660008573ffffffffffffffffffffffffffffffffffffffff1673ffffffffffffffffffffffffffffffffffffffff16815260200190815260200160002054611aea90919063ffffffff16565b600660008473ffffffffffffffffffffffffffffffffffffffff1673ffffffffffffffffffffffffffffffffffffffff1681526020019081526020016000208190555061154f6001600660003373ffffffffffffffffffffffffffffffffffffffff1673ffffffffffffffffffffffffffffffffffffffff16815260200190815260200160002054611b1690919063ffffffff16565b600660003373ffffffffffffffffffffffffffffffffffffffff1673ffffffffffffffffffffffffffffffffffffffff16815260200190815260200160002081905550816005600083815260200190815260200160002060006101000a81548173ffffffffffffffffffffffffffffffffffffffff021916908373ffffffffffffffffffffffffffffffffffffffff160217905550808273ffffffffffffffffffffffffffffffffffffffff168473ffffffffffffffffffffffffffffffffffffffff167fddf252ad1be2c89b69c2b068fc378daa952ba7f163c4a11628f55a4df523b3ef60405160405180910390a4505050565b600080826040516020016116589190612767565b6040516020818303038152906040528051906020012060001c9050600254816116819190612575565b915050919050565b60006040518060c00160405280848152602001838152602001600163ffffffff168152602001600354426116bd9190612643565b63ffffffff168152602001600061ffff168152602001600061ffff16815250905060048190806001815401808255809150506001900390600052602060002090600302016000909190919091506000820151816000019080519060200190611726929190611bc3565b506020820151816001015560408201518160020160006101000a81548163ffffffff021916908363ffffffff16021790555060608201518160020160046101000a81548163ffffffff021916908363ffffffff16021790555060808201518160020160086101000a81548161ffff021916908361ffff16021790555060a082015181600201600a6101000a81548161ffff021916908361ffff1602179055505050600060016004805490506117db91906125a6565b9050336005600083815260200190815260200160002060006101000a81548173ffffffffffffffffffffffffffffffffffffffff021916908373ffffffffffffffffffffffffffffffffffffffff1602179055506118826001600660003373ffffffffffffffffffffffffffffffffffffffff1673ffffffffffffffffffffffffffffffffffffffff16815260200190815260200160002054611aea90919063ffffffff16565b600660003373ffffffffffffffffffffffffffffffffffffffff1673ffffffffffffffffffffffffffffffffffffffff168152602001908152602001600020819055507f88f026aacbbecc90c18411df4b1185fd8d9be2470f1962f192bf84a27d0704b78185856040516118f89392919061277e565b60405180910390a150505050565b600061191e6001600954611aea90919063ffffffff16565b60098190555081423360095460405160200161193c93929190612825565b6040516020818303038152906040528051906020012060001c61195f9190612575565b9050919050565b60008082846119759190612862565b90508361ffff168161ffff1610156119905761198f612614565b5b8091505092915050565b600354426119a89190612643565b8160020160046101000a81548163ffffffff021916908363ffffffff16021790555050565b600073ffffffffffffffffffffffffffffffffffffffff168173ffffffffffffffffffffffffffffffffffffffff1603611a0657600080fd5b8073ffffffffffffffffffffffffffffffffffffffff1660008054906101000a900473ffffffffffffffffffffffffffffffffffffffff1673ffffffffffffffffffffffffffffffffffffffff167f8be0079c531659141344cd1fd0a4f28419497f9722a3daafe3b4186f6b6457e060405160405180910390a3806000806101000a81548173ffffffffffffffffffffffffffffffffffffffff021916908373ffffffffffffffffffffffffffffffffffffffff16021790555050565b6000428260020160049054906101000a900463ffffffff1663ffffffff1611159050919050565b6000808284611af99190612643565b905083811015611b0c57611b0b612614565b5b8091505092915050565b600082821115611b2957611b28612614565b5b8183611b3591906125a6565b905092915050565b828054611b499061249e565b90600052602060002090601f016020900481019282611b6b5760008555611bb2565b82601f10611b8457803560ff1916838001178555611bb2565b82800160010185558215611bb2579182015b82811115611bb1578235825591602001919060010190611b96565b5b509050611bbf9190611c49565b5090565b828054611bcf9061249e565b90600052602060002090601f016020900481019282611bf15760008555611c38565b82601f10611c0a57805160ff1916838001178555611c38565b82800160010185558215611c38579182015b82811115611c37578251825591602001919060010190611c1c565b5b509050611c459190611c49565b5090565b5b80821115611c62576000816000905550600101611c4a565b5090565b6000604051905090565b600080fd5b600080fd5b600073ffffffffffffffffffffffffffffffffffffffff82169050919050565b6000611ca582611c7a565b9050919050565b611cb581611c9a565b8114611cc057600080fd5b50565b600081359050611cd281611cac565b92915050565b6000819050919050565b611ceb81611cd8565b8114611cf657600080fd5b50565b600081359050611d0881611ce2565b92915050565b60008060408385031215611d2557611d24611c70565b5b6000611d3385828601611cc3565b9250506020611d4485828601611cf9565b9150509250929050565b600060208284031215611d6457611d63611c70565b5b6000611d7284828501611cf9565b91505092915050565b60008060408385031215611d9257611d91611c70565b5b6000611da085828601611cf9565b9250506020611db185828601611cf9565b9150509250929050565b600081519050919050565b600082825260208201905092915050565b60005b83811015611df5578082015181840152602081019050611dda565b83811115611e04576000848401525b50505050565b6000601f19601f8301169050919050565b6000611e2682611dbb565b611e308185611dc6565b9350611e40818560208601611dd7565b611e4981611e0a565b840191505092915050565b611e5d81611cd8565b82525050565b600063ffffffff82169050919050565b611e7c81611e63565b82525050565b600061ffff82169050919050565b611e9981611e82565b82525050565b600060c0820190508181036000830152611eb98189611e1b565b9050611ec86020830188611e54565b611ed56040830187611e73565b611ee26060830186611e73565b611eef6080830185611e90565b611efc60a0830184611e90565b979650505050505050565b600080600060608486031215611f2057611f1f611c70565b5b6000611f2e86828701611cc3565b9350506020611f3f86828701611cc3565b9250506040611f5086828701611cf9565b9150509250925092565b600060208284031215611f7057611f6f611c70565b5b6000611f7e84828501611cc3565b91505092915050565b600081519050919050565b600082825260208201905092915050565b6000819050602082019050919050565b611fbc81611cd8565b82525050565b6000611fce8383611fb3565b60208301905092915050565b6000602082019050919050565b6000611ff282611f87565b611ffc8185611f92565b935061200783611fa3565b8060005b8381101561203857815161201f8882611fc2565b975061202a83611fda565b92505060018101905061200b565b5085935050505092915050565b6000602082019050818103600083015261205f8184611fe7565b905092915050565b61207081611c9a565b82525050565b600060208201905061208b6000830184612067565b92915050565b60006020820190506120a66000830184611e54565b92915050565b600080fd5b600080fd5b7f4e487b7100000000000000000000000000000000000000000000000000000000600052604160045260246000fd5b6120ee82611e0a565b810181811067ffffffffffffffff8211171561210d5761210c6120b6565b5b80604052505050565b6000612120611c66565b905061212c82826120e5565b919050565b600067ffffffffffffffff82111561214c5761214b6120b6565b5b61215582611e0a565b9050602081019050919050565b82818337600083830152505050565b600061218461217f84612131565b612116565b9050828152602081018484840111156121a05761219f6120b1565b5b6121ab848285612162565b509392505050565b600082601f8301126121c8576121c76120ac565b5b81356121d8848260208601612171565b91505092915050565b6000602082840312156121f7576121f6611c70565b5b600082013567ffffffffffffffff81111561221557612214611c75565b5b612221848285016121b3565b91505092915050565b60008115159050919050565b61223f8161222a565b82525050565b600060208201905061225a6000830184612236565b92915050565b600080fd5b600080fd5b60008083601f8401126122805761227f6120ac565b5b8235905067ffffffffffffffff81111561229d5761229c612260565b5b6020830191508360018202830111156122b9576122b8612265565b5b9250929050565b6000806000604084860312156122d9576122d8611c70565b5b60006122e786828701611cf9565b935050602084013567ffffffffffffffff81111561230857612307611c75565b5b6123148682870161226a565b92509250509250925092565b7f4e487b7100000000000000000000000000000000000000000000000000000000600052603260045260246000fd5b6123588161222a565b811461236357600080fd5b50565b6000815190506123758161234f565b92915050565b60008151905061238a81611ce2565b92915050565b6000806000806000806000806000806101408b8d0312156123b4576123b3611c70565b5b60006123c28d828e01612366565b9a505060206123d38d828e01612366565b99505060406123e48d828e0161237b565b98505060606123f58d828e0161237b565b97505060806124068d828e0161237b565b96505060a06124178d828e0161237b565b95505060c06124288d828e0161237b565b94505060e06124398d828e0161237b565b93505061010061244b8d828e0161237b565b92505061012061245d8d828e0161237b565b9150509295989b9194979a5092959850565b7f4e487b7100000000000000000000000000000000000000000000000000000000600052602260045260246000fd5b600060028204905060018216806124b657607f821691505b6020821081036124c9576124c861246f565b5b50919050565b7f4e487b7100000000000000000000000000000000000000000000000000000000600052601160045260246000fd5b600061250982611cd8565b91507fffffffffffffffffffffffffffffffffffffffffffffffffffffffffffffffff820361253b5761253a6124cf565b5b600182019050919050565b7f4e487b7100000000000000000000000000000000000000000000000000000000600052601260045260246000fd5b600061258082611cd8565b915061258b83611cd8565b92508261259b5761259a612546565b5b828206905092915050565b60006125b182611cd8565b91506125bc83611cd8565b9250828210156125cf576125ce6124cf565b5b828203905092915050565b60006125e582611e63565b91506125f083611e63565b92508263ffffffff03821115612609576126086124cf565b5b828201905092915050565b7f4e487b7100000000000000000000000000000000000000000000000000000000600052600160045260246000fd5b600061264e82611cd8565b915061265983611cd8565b9250827fffffffffffffffffffffffffffffffffffffffffffffffffffffffffffffffff0382111561268e5761268d6124cf565b5b828201905092915050565b60006126a482611cd8565b91506126af83611cd8565b9250826126bf576126be612546565b5b828204905092915050565b600081905092915050565b7f6b69747479000000000000000000000000000000000000000000000000000000600082015250565b600061270b6005836126ca565b9150612716826126d5565b600582019050919050565b600061272c826126fe565b9150819050919050565b600061274182611dbb565b61274b81856126ca565b935061275b818560208601611dd7565b80840191505092915050565b60006127738284612736565b915081905092915050565b60006060820190506127936000830186611e54565b81810360208301526127a58185611e1b565b90506127b46040830184611e54565b949350505050565b6000819050919050565b6127d76127d282611cd8565b6127bc565b82525050565b60008160601b9050919050565b60006127f5826127dd565b9050919050565b6000612807826127ea565b9050919050565b61281f61281a82611c9a565b6127fc565b82525050565b600061283182866127c6565b602082019150612841828561280e565b60148201915061285182846127c6565b602082019150819050949350505050565b600061286d82611e82565b915061287883611e82565b92508261ffff0382111561288f5761288e6124cf565b5b82820190509291505056fea2646970667358221220079cdb0c6b664e6b6cfd2c26603663e55a8dd2e605f83277322cbb96b93870dc64736f6c634300080d0033",
  "immutableReferences": {},
  "source": "// SPDX-License-Identifier: UNLICENSED\npragma solidity >=0.4.22 <0.9.0;\n\nimport \"./ZombieAttack.sol\";\nimport \"./ERC721.sol\";\nimport \"./SafeMath.sol\";\n\ncontract ZombieOwnership is ZombieAttack, ERC721 {\n\n  using SafeMath for uint256;\n\n  mapping (uint => address) zombieApprovals;\n\n  function balanceOf(address _owner) external override view returns (uint256) {\n    return ownerZombieCount[_owner];\n  }\n\n  function ownerOf(uint256 _tokenId) external override view returns (address) {\n    return zombieToOwner[_tokenId];\n  }\n\n  function _transfer(address _from, address _to, uint256 _tokenId) private {\n    ownerZombieCount[_to] = ownerZombieCount[_to].add(1);\n    ownerZombieCount[msg.sender] = ownerZombieCount[msg.sender].sub(1);\n    zombieToOwner[_tokenId] = _to;\n    emit Transfer(_from, _to, _tokenId);\n  }\n\n  function transferFrom(address _from, address _to, uint256 _tokenId) external override payable {\n      require (zombieToOwner[_tokenId] == msg.sender || zombieApprovals[_tokenId] == msg.sender);\n      _transfer(_from, _to, _tokenId);\n    }\n\n  function approve(address _approved, uint256 _tokenId) external override payable onlyOwnerOf(_tokenId) {\n      zombieApprovals[_tokenId] = _approved;\n      emit Approval(msg.sender, _approved, _tokenId);\n    }\n\n}\n",
  "sourcePath": "/home/paulo/source/personal/blockchain/cryptozombies/src/contracts/ZombieOwnership.sol",
  "compiler": {
    "name": "solc",
    "version": "0.8.13+commit.abaa5c0e.Emscripten.clang"
  },
  "schemaVersion": "3.4.6",
  "updatedAt": "2022-04-13T14:11:17.843Z",
  "networkType": "ethereum",
  "devdoc": {
    "kind": "dev",
    "methods": {
      "isOwner()": {
        "returns": {
          "_0": "true if `msg.sender` is the owner of the contract."
        }
      },
      "owner()": {
        "returns": {
          "_0": "the address of the owner."
        }
      },
      "renounceOwnership()": {
        "details": "Allows the current owner to relinquish control of the contract."
      },
      "transferOwnership(address)": {
        "details": "Allows the current owner to transfer control of the contract to a newOwner.",
        "params": {
          "newOwner": "The address to transfer ownership to."
        }
      }
    },
    "version": 1
  },
  "userdoc": {
    "kind": "user",
    "methods": {
      "renounceOwnership()": {
        "notice": "Renouncing to ownership will leave the contract without an owner. It will not be possible to call the functions with the `onlyOwner` modifier anymore."
      }
    },
    "version": 1
  }
}