{
  "contractName": "ZombieFactory",
  "abi": [
    {
      "anonymous": false,
      "inputs": [
        {
          "indexed": false,
          "internalType": "uint256",
          "name": "zombieId",
          "type": "uint256"
        },
        {
          "indexed": false,
          "internalType": "string",
          "name": "name",
          "type": "string"
        },
        {
          "indexed": false,
          "internalType": "uint256",
          "name": "dna",
          "type": "uint256"
        }
      ],
      "name": "NewZombie",
      "type": "event"
    },
    {
      "anonymous": false,
      "inputs": [
        {
          "indexed": true,
          "internalType": "address",
          "name": "previousOwner",
          "type": "address"
        },
        {
          "indexed": true,
          "internalType": "address",
          "name": "newOwner",
          "type": "address"
        }
      ],
      "name": "OwnershipTransferred",
      "type": "event"
    },
    {
      "inputs": [],
      "name": "isOwner",
      "outputs": [
        {
          "internalType": "bool",
          "name": "",
          "type": "bool"
        }
      ],
      "stateMutability": "view",
      "type": "function",
      "constant": true
    },
    {
      "inputs": [],
      "name": "owner",
      "outputs": [
        {
          "internalType": "address",
          "name": "",
          "type": "address"
        }
      ],
      "stateMutability": "view",
      "type": "function",
      "constant": true
    },
    {
      "inputs": [],
      "name": "renounceOwnership",
      "outputs": [],
      "stateMutability": "nonpayable",
      "type": "function"
    },
    {
      "inputs": [
        {
          "internalType": "address",
          "name": "newOwner",
          "type": "address"
        }
      ],
      "name": "transferOwnership",
      "outputs": [],
      "stateMutability": "nonpayable",
      "type": "function"
    },
    {
      "inputs": [
        {
          "internalType": "uint256",
          "name": "",
          "type": "uint256"
        }
      ],
      "name": "zombieToOwner",
      "outputs": [
        {
          "internalType": "address",
          "name": "",
          "type": "address"
        }
      ],
      "stateMutability": "view",
      "type": "function",
      "constant": true
    },
    {
      "inputs": [
        {
          "internalType": "uint256",
          "name": "",
          "type": "uint256"
        }
      ],
      "name": "zombies",
      "outputs": [
        {
          "internalType": "string",
          "name": "name",
          "type": "string"
        },
        {
          "internalType": "uint256",
          "name": "dna",
          "type": "uint256"
        },
        {
          "internalType": "uint32",
          "name": "level",
          "type": "uint32"
        },
        {
          "internalType": "uint32",
          "name": "readyTime",
          "type": "uint32"
        },
        {
          "internalType": "uint16",
          "name": "winCount",
          "type": "uint16"
        },
        {
          "internalType": "uint16",
          "name": "lossCount",
          "type": "uint16"
        }
      ],
      "stateMutability": "view",
      "type": "function",
      "constant": true
    },
    {
      "inputs": [
        {
          "internalType": "string",
          "name": "_name",
          "type": "string"
        }
      ],
      "name": "createRandomZombie",
      "outputs": [],
      "stateMutability": "nonpayable",
      "type": "function"
    }
  ],
  "bytecode": "0x60806040526010600155600154600a6200001a919062000280565b600255620151806003553480156200003157600080fd5b50336000806101000a81548173ffffffffffffffffffffffffffffffffffffffff021916908373ffffffffffffffffffffffffffffffffffffffff16021790555060008054906101000a900473ffffffffffffffffffffffffffffffffffffffff1673ffffffffffffffffffffffffffffffffffffffff16600073ffffffffffffffffffffffffffffffffffffffff167f8be0079c531659141344cd1fd0a4f28419497f9722a3daafe3b4186f6b6457e060405160405180910390a3620002d1565b7f4e487b7100000000000000000000000000000000000000000000000000000000600052601160045260246000fd5b60008160011c9050919050565b6000808291508390505b60018511156200018157808604811115620001595762000158620000f3565b5b6001851615620001695780820291505b8081029050620001798562000122565b945062000139565b94509492505050565b6000826200019c57600190506200026f565b81620001ac57600090506200026f565b8160018114620001c55760028114620001d05762000206565b60019150506200026f565b60ff841115620001e557620001e4620000f3565b5b8360020a915084821115620001ff57620001fe620000f3565b5b506200026f565b5060208310610133831016604e8410600b8410161715620002405782820a9050838111156200023a5762000239620000f3565b5b6200026f565b6200024f84848460016200012f565b92509050818404811115620002695762000268620000f3565b5b81810290505b9392505050565b6000819050919050565b60006200028d8262000276565b91506200029a8362000276565b9250620002c97fffffffffffffffffffffffffffffffffffffffffffffffffffffffffffffffff84846200018a565b905092915050565b610fb780620002e16000396000f3fe608060405234801561001057600080fd5b506004361061007d5760003560e01c80637bff0a011161005b5780637bff0a01146100f15780638da5cb5b1461010d5780638f32d59b1461012b578063f2fde38b146101495761007d565b80632052465e14610082578063528b7b8f146100b7578063715018a6146100e7575b600080fd5b61009c60048036038101906100979190610966565b610165565b6040516100ae96959493929190610a77565b60405180910390f35b6100d160048036038101906100cc9190610966565b610275565b6040516100de9190610b20565b60405180910390f35b6100ef6102a8565b005b61010b60048036038101906101069190610c70565b610377565b005b6101156103f8565b6040516101229190610b20565b60405180910390f35b610133610421565b6040516101409190610cd4565b60405180910390f35b610163600480360381019061015e9190610d1b565b610478565b005b6004818154811061017557600080fd5b906000526020600020906003020160009150905080600001805461019890610d77565b80601f01602080910402602001604051908101604052809291908181526020018280546101c490610d77565b80156102115780601f106101e657610100808354040283529160200191610211565b820191906000526020600020905b8154815290600101906020018083116101f457829003601f168201915b5050505050908060010154908060020160009054906101000a900463ffffffff16908060020160049054906101000a900463ffffffff16908060020160089054906101000a900461ffff169080600201600a9054906101000a900461ffff16905086565b60056020528060005260406000206000915054906101000a900473ffffffffffffffffffffffffffffffffffffffff1681565b6102b0610421565b6102b957600080fd5b600073ffffffffffffffffffffffffffffffffffffffff1660008054906101000a900473ffffffffffffffffffffffffffffffffffffffff1673ffffffffffffffffffffffffffffffffffffffff167f8be0079c531659141344cd1fd0a4f28419497f9722a3daafe3b4186f6b6457e060405160405180910390a360008060006101000a81548173ffffffffffffffffffffffffffffffffffffffff021916908373ffffffffffffffffffffffffffffffffffffffff160217905550565b6000600660003373ffffffffffffffffffffffffffffffffffffffff1673ffffffffffffffffffffffffffffffffffffffff16815260200190815260200160002054146103c357600080fd5b60006103ce82610495565b90506064816103dd9190610dd7565b816103e89190610e37565b90506103f482826104da565b5050565b60008060009054906101000a900473ffffffffffffffffffffffffffffffffffffffff16905090565b60008060009054906101000a900473ffffffffffffffffffffffffffffffffffffffff1673ffffffffffffffffffffffffffffffffffffffff163373ffffffffffffffffffffffffffffffffffffffff1614905090565b610480610421565b61048957600080fd5b61049281610757565b50565b600080826040516020016104a99190610ea7565b6040516020818303038152906040528051906020012060001c9050600254816104d29190610dd7565b915050919050565b60006040518060c00160405280848152602001838152602001600163ffffffff1681526020016003544261050e9190610ebe565b63ffffffff168152602001600061ffff168152602001600061ffff16815250905060048190806001815401808255809150506001900390600052602060002090600302016000909190919091506000820151816000019080519060200190610577929190610879565b506020820151816001015560408201518160020160006101000a81548163ffffffff021916908363ffffffff16021790555060608201518160020160046101000a81548163ffffffff021916908363ffffffff16021790555060808201518160020160086101000a81548161ffff021916908361ffff16021790555060a082015181600201600a6101000a81548161ffff021916908361ffff16021790555050506000600160048054905061062c9190610e37565b9050336005600083815260200190815260200160002060006101000a81548173ffffffffffffffffffffffffffffffffffffffff021916908373ffffffffffffffffffffffffffffffffffffffff1602179055506106d36001600660003373ffffffffffffffffffffffffffffffffffffffff1673ffffffffffffffffffffffffffffffffffffffff1681526020019081526020016000205461084d90919063ffffffff16565b600660003373ffffffffffffffffffffffffffffffffffffffff1673ffffffffffffffffffffffffffffffffffffffff168152602001908152602001600020819055507f88f026aacbbecc90c18411df4b1185fd8d9be2470f1962f192bf84a27d0704b781858560405161074993929190610f14565b60405180910390a150505050565b600073ffffffffffffffffffffffffffffffffffffffff168173ffffffffffffffffffffffffffffffffffffffff160361079057600080fd5b8073ffffffffffffffffffffffffffffffffffffffff1660008054906101000a900473ffffffffffffffffffffffffffffffffffffffff1673ffffffffffffffffffffffffffffffffffffffff167f8be0079c531659141344cd1fd0a4f28419497f9722a3daafe3b4186f6b6457e060405160405180910390a3806000806101000a81548173ffffffffffffffffffffffffffffffffffffffff021916908373ffffffffffffffffffffffffffffffffffffffff16021790555050565b600080828461085c9190610ebe565b90508381101561086f5761086e610f52565b5b8091505092915050565b82805461088590610d77565b90600052602060002090601f0160209004810192826108a757600085556108ee565b82601f106108c057805160ff19168380011785556108ee565b828001600101855582156108ee579182015b828111156108ed5782518255916020019190600101906108d2565b5b5090506108fb91906108ff565b5090565b5b80821115610918576000816000905550600101610900565b5090565b6000604051905090565b600080fd5b600080fd5b6000819050919050565b61094381610930565b811461094e57600080fd5b50565b6000813590506109608161093a565b92915050565b60006020828403121561097c5761097b610926565b5b600061098a84828501610951565b91505092915050565b600081519050919050565b600082825260208201905092915050565b60005b838110156109cd5780820151818401526020810190506109b2565b838111156109dc576000848401525b50505050565b6000601f19601f8301169050919050565b60006109fe82610993565b610a08818561099e565b9350610a188185602086016109af565b610a21816109e2565b840191505092915050565b610a3581610930565b82525050565b600063ffffffff82169050919050565b610a5481610a3b565b82525050565b600061ffff82169050919050565b610a7181610a5a565b82525050565b600060c0820190508181036000830152610a9181896109f3565b9050610aa06020830188610a2c565b610aad6040830187610a4b565b610aba6060830186610a4b565b610ac76080830185610a68565b610ad460a0830184610a68565b979650505050505050565b600073ffffffffffffffffffffffffffffffffffffffff82169050919050565b6000610b0a82610adf565b9050919050565b610b1a81610aff565b82525050565b6000602082019050610b356000830184610b11565b92915050565b600080fd5b600080fd5b7f4e487b7100000000000000000000000000000000000000000000000000000000600052604160045260246000fd5b610b7d826109e2565b810181811067ffffffffffffffff82111715610b9c57610b9b610b45565b5b80604052505050565b6000610baf61091c565b9050610bbb8282610b74565b919050565b600067ffffffffffffffff821115610bdb57610bda610b45565b5b610be4826109e2565b9050602081019050919050565b82818337600083830152505050565b6000610c13610c0e84610bc0565b610ba5565b905082815260208101848484011115610c2f57610c2e610b40565b5b610c3a848285610bf1565b509392505050565b600082601f830112610c5757610c56610b3b565b5b8135610c67848260208601610c00565b91505092915050565b600060208284031215610c8657610c85610926565b5b600082013567ffffffffffffffff811115610ca457610ca361092b565b5b610cb084828501610c42565b91505092915050565b60008115159050919050565b610cce81610cb9565b82525050565b6000602082019050610ce96000830184610cc5565b92915050565b610cf881610aff565b8114610d0357600080fd5b50565b600081359050610d1581610cef565b92915050565b600060208284031215610d3157610d30610926565b5b6000610d3f84828501610d06565b91505092915050565b7f4e487b7100000000000000000000000000000000000000000000000000000000600052602260045260246000fd5b60006002820490506001821680610d8f57607f821691505b602082108103610da257610da1610d48565b5b50919050565b7f4e487b7100000000000000000000000000000000000000000000000000000000600052601260045260246000fd5b6000610de282610930565b9150610ded83610930565b925082610dfd57610dfc610da8565b5b828206905092915050565b7f4e487b7100000000000000000000000000000000000000000000000000000000600052601160045260246000fd5b6000610e4282610930565b9150610e4d83610930565b925082821015610e6057610e5f610e08565b5b828203905092915050565b600081905092915050565b6000610e8182610993565b610e8b8185610e6b565b9350610e9b8185602086016109af565b80840191505092915050565b6000610eb38284610e76565b915081905092915050565b6000610ec982610930565b9150610ed483610930565b9250827fffffffffffffffffffffffffffffffffffffffffffffffffffffffffffffffff03821115610f0957610f08610e08565b5b828201905092915050565b6000606082019050610f296000830186610a2c565b8181036020830152610f3b81856109f3565b9050610f4a6040830184610a2c565b949350505050565b7f4e487b7100000000000000000000000000000000000000000000000000000000600052600160045260246000fdfea2646970667358221220fba541484304223d477790017621dde34030295fbbf367bb32238bfe72d40c0064736f6c634300080d0033",
  "immutableReferences": {},
  "source": "// SPDX-License-Identifier: UNLICENSED\npragma solidity >=0.4.22 <0.9.0;\n\nimport \"./Ownable.sol\";\nimport \"./SafeMath.sol\";\n\ncontract ZombieFactory is Ownable {\n\n  using SafeMath for uint256;\n  using SafeMath32 for uint32;\n  using SafeMath16 for uint16;\n\n  event NewZombie(uint zombieId, string name, uint dna);\n\n  uint dnaDigits = 16;\n  uint dnaModulus = 10 ** dnaDigits;\n  uint cooldownTime = 1 days;\n\n  struct Zombie {\n    string name;\n    uint dna;\n    uint32 level;\n    uint32 readyTime;\n    uint16 winCount;\n    uint16 lossCount;\n  }\n\n  Zombie[] public zombies;\n\n  mapping (uint => address) public zombieToOwner;\n  mapping (address => uint) ownerZombieCount;\n\n  function _createZombie(string memory _name, uint _dna) internal {\n    Zombie memory newZombie = Zombie(_name, _dna, 1, uint32(block.timestamp + cooldownTime), 0, 0);\n    zombies.push(newZombie);\n    uint id = zombies.length - 1;\n    zombieToOwner[id] = msg.sender;\n    ownerZombieCount[msg.sender] = ownerZombieCount[msg.sender].add(1);\n    emit NewZombie(id, _name, _dna);\n  }\n\n  function _generateRandomDna(string memory _str) private view returns (uint) {\n    uint rand = uint(keccak256(abi.encodePacked(_str)));\n    return rand % dnaModulus;\n  }\n\n  function createRandomZombie(string memory _name) public {\n    require(ownerZombieCount[msg.sender] == 0);\n    uint randDna = _generateRandomDna(_name);\n    randDna = randDna - randDna % 100;\n    _createZombie(_name, randDna);\n  }\n\n}\n",
  "sourcePath": "/home/paulo/source/personal/blockchain/cryptozombies/src/contracts/ZombieFactory.sol",
  "compiler": {
    "name": "solc",
    "version": "0.8.13+commit.abaa5c0e.Emscripten.clang"
  },
  "schemaVersion": "3.4.6",
  "updatedAt": "2022-04-13T14:11:17.825Z",
  "networkType": "ethereum",
  "devdoc": {
    "kind": "dev",
    "methods": {
      "isOwner()": {
        "returns": {
          "_0": "true if `msg.sender` is the owner of the contract."
        }
      },
      "owner()": {
        "returns": {
          "_0": "the address of the owner."
        }
      },
      "renounceOwnership()": {
        "details": "Allows the current owner to relinquish control of the contract."
      },
      "transferOwnership(address)": {
        "details": "Allows the current owner to transfer control of the contract to a newOwner.",
        "params": {
          "newOwner": "The address to transfer ownership to."
        }
      }
    },
    "version": 1
  },
  "userdoc": {
    "kind": "user",
    "methods": {
      "renounceOwnership()": {
        "notice": "Renouncing to ownership will leave the contract without an owner. It will not be possible to call the functions with the `onlyOwner` modifier anymore."
      }
    },
    "version": 1
  }
}