{
  "contractName": "ZombieHelper",
  "abi": [
    {
      "anonymous": false,
      "inputs": [
        {
          "indexed": false,
          "internalType": "uint256",
          "name": "zombieId",
          "type": "uint256"
        },
        {
          "indexed": false,
          "internalType": "string",
          "name": "name",
          "type": "string"
        },
        {
          "indexed": false,
          "internalType": "uint256",
          "name": "dna",
          "type": "uint256"
        }
      ],
      "name": "NewZombie",
      "type": "event"
    },
    {
      "anonymous": false,
      "inputs": [
        {
          "indexed": true,
          "internalType": "address",
          "name": "previousOwner",
          "type": "address"
        },
        {
          "indexed": true,
          "internalType": "address",
          "name": "newOwner",
          "type": "address"
        }
      ],
      "name": "OwnershipTransferred",
      "type": "event"
    },
    {
      "inputs": [
        {
          "internalType": "string",
          "name": "_name",
          "type": "string"
        }
      ],
      "name": "createRandomZombie",
      "outputs": [],
      "stateMutability": "nonpayable",
      "type": "function"
    },
    {
      "inputs": [
        {
          "internalType": "uint256",
          "name": "_zombieId",
          "type": "uint256"
        },
        {
          "internalType": "uint256",
          "name": "_kittyId",
          "type": "uint256"
        }
      ],
      "name": "feedOnKitty",
      "outputs": [],
      "stateMutability": "nonpayable",
      "type": "function"
    },
    {
      "inputs": [],
      "name": "isOwner",
      "outputs": [
        {
          "internalType": "bool",
          "name": "",
          "type": "bool"
        }
      ],
      "stateMutability": "view",
      "type": "function",
      "constant": true
    },
    {
      "inputs": [],
      "name": "owner",
      "outputs": [
        {
          "internalType": "address",
          "name": "",
          "type": "address"
        }
      ],
      "stateMutability": "view",
      "type": "function",
      "constant": true
    },
    {
      "inputs": [],
      "name": "renounceOwnership",
      "outputs": [],
      "stateMutability": "nonpayable",
      "type": "function"
    },
    {
      "inputs": [
        {
          "internalType": "address",
          "name": "_address",
          "type": "address"
        }
      ],
      "name": "setKittyContractAddress",
      "outputs": [],
      "stateMutability": "nonpayable",
      "type": "function"
    },
    {
      "inputs": [
        {
          "internalType": "address",
          "name": "newOwner",
          "type": "address"
        }
      ],
      "name": "transferOwnership",
      "outputs": [],
      "stateMutability": "nonpayable",
      "type": "function"
    },
    {
      "inputs": [
        {
          "internalType": "uint256",
          "name": "",
          "type": "uint256"
        }
      ],
      "name": "zombieToOwner",
      "outputs": [
        {
          "internalType": "address",
          "name": "",
          "type": "address"
        }
      ],
      "stateMutability": "view",
      "type": "function",
      "constant": true
    },
    {
      "inputs": [
        {
          "internalType": "uint256",
          "name": "",
          "type": "uint256"
        }
      ],
      "name": "zombies",
      "outputs": [
        {
          "internalType": "string",
          "name": "name",
          "type": "string"
        },
        {
          "internalType": "uint256",
          "name": "dna",
          "type": "uint256"
        },
        {
          "internalType": "uint32",
          "name": "level",
          "type": "uint32"
        },
        {
          "internalType": "uint32",
          "name": "readyTime",
          "type": "uint32"
        },
        {
          "internalType": "uint16",
          "name": "winCount",
          "type": "uint16"
        },
        {
          "internalType": "uint16",
          "name": "lossCount",
          "type": "uint16"
        }
      ],
      "stateMutability": "view",
      "type": "function",
      "constant": true
    },
    {
      "inputs": [],
      "name": "withdraw",
      "outputs": [],
      "stateMutability": "nonpayable",
      "type": "function"
    },
    {
      "inputs": [
        {
          "internalType": "uint256",
          "name": "_fee",
          "type": "uint256"
        }
      ],
      "name": "setLevelUpFee",
      "outputs": [],
      "stateMutability": "nonpayable",
      "type": "function"
    },
    {
      "inputs": [
        {
          "internalType": "uint256",
          "name": "_zombieId",
          "type": "uint256"
        }
      ],
      "name": "levelUp",
      "outputs": [],
      "stateMutability": "payable",
      "type": "function",
      "payable": true
    },
    {
      "inputs": [
        {
          "internalType": "uint256",
          "name": "_zombieId",
          "type": "uint256"
        },
        {
          "internalType": "string",
          "name": "_newName",
          "type": "string"
        }
      ],
      "name": "changeName",
      "outputs": [],
      "stateMutability": "nonpayable",
      "type": "function"
    },
    {
      "inputs": [
        {
          "internalType": "uint256",
          "name": "_zombieId",
          "type": "uint256"
        },
        {
          "internalType": "uint256",
          "name": "_newDna",
          "type": "uint256"
        }
      ],
      "name": "changeDna",
      "outputs": [],
      "stateMutability": "nonpayable",
      "type": "function"
    },
    {
      "inputs": [
        {
          "internalType": "address",
          "name": "_owner",
          "type": "address"
        }
      ],
      "name": "getZombiesByOwner",
      "outputs": [
        {
          "internalType": "uint256[]",
          "name": "",
          "type": "uint256[]"
        }
      ],
      "stateMutability": "view",
      "type": "function",
      "constant": true
    }
  ],
  "bytecode": "0x60806040526010600155600154600a6200001a91906200028b565b6002556201518060035566038d7ea4c680006008553480156200003c57600080fd5b50336000806101000a81548173ffffffffffffffffffffffffffffffffffffffff021916908373ffffffffffffffffffffffffffffffffffffffff16021790555060008054906101000a900473ffffffffffffffffffffffffffffffffffffffff1673ffffffffffffffffffffffffffffffffffffffff16600073ffffffffffffffffffffffffffffffffffffffff167f8be0079c531659141344cd1fd0a4f28419497f9722a3daafe3b4186f6b6457e060405160405180910390a3620002dc565b7f4e487b7100000000000000000000000000000000000000000000000000000000600052601160045260246000fd5b60008160011c9050919050565b6000808291508390505b60018511156200018c57808604811115620001645762000163620000fe565b5b6001851615620001745780820291505b808102905062000184856200012d565b945062000144565b94509492505050565b600082620001a757600190506200027a565b81620001b757600090506200027a565b8160018114620001d05760028114620001db5762000211565b60019150506200027a565b60ff841115620001f057620001ef620000fe565b5b8360020a9150848211156200020a5762000209620000fe565b5b506200027a565b5060208310610133831016604e8410600b84101617156200024b5782820a905083811115620002455762000244620000fe565b5b6200027a565b6200025a84848460016200013a565b92509050818404811115620002745762000273620000fe565b5b81810290505b9392505050565b6000819050919050565b6000620002988262000281565b9150620002a58362000281565b9250620002d47fffffffffffffffffffffffffffffffffffffffffffffffffffffffffffffffff848462000195565b905092915050565b611e9280620002ec6000396000f3fe6080604052600436106100e85760003560e01c80635faf28801161008a5780638f32d59b116100595780638f32d59b146102c2578063c39cbef1146102ed578063ccf670f814610316578063f2fde38b1461033f576100e8565b80635faf28801461022e578063715018a6146102575780637bff0a011461026e5780638da5cb5b14610297576100e8565b80633ccfd60b116100c65780633ccfd60b146101745780634412e1041461018b578063528b7b8f146101c85780635f4623f114610205576100e8565b80630ce90ec2146100ed57806317a7f4cc146101095780632052465e14610132575b600080fd5b610107600480360381019061010291906113e3565b610368565b005b34801561011557600080fd5b50610130600480360381019061012b9190611410565b61040b565b005b34801561013e57600080fd5b50610159600480360381019061015491906113e3565b610529565b60405161016b96959493929190611534565b60405180910390f35b34801561018057600080fd5b50610189610639565b005b34801561019757600080fd5b506101b260048036038101906101ad91906115fa565b6106a0565b6040516101bf91906116e5565b60405180910390f35b3480156101d457600080fd5b506101ef60048036038101906101ea91906113e3565b6107f2565b6040516101fc9190611716565b60405180910390f35b34801561021157600080fd5b5061022c600480360381019061022791906115fa565b610825565b005b34801561023a57600080fd5b5061025560048036038101906102509190611410565b61087a565b005b34801561026357600080fd5b5061026c610962565b005b34801561027a57600080fd5b5061029560048036038101906102909190611866565b610a31565b005b3480156102a357600080fd5b506102ac610ab2565b6040516102b99190611716565b60405180910390f35b3480156102ce57600080fd5b506102d7610adb565b6040516102e491906118ca565b60405180910390f35b3480156102f957600080fd5b50610314600480360381019061030f9190611945565b610b32565b005b34801561032257600080fd5b5061033d600480360381019061033891906113e3565b610c26565b005b34801561034b57600080fd5b50610366600480360381019061036191906115fa565b610c41565b005b600854341461037657600080fd5b6103c560016004838154811061038f5761038e6119a5565b5b906000526020600020906003020160020160009054906101000a900463ffffffff1663ffffffff16610c5e90919063ffffffff16565b600482815481106103d9576103d86119a5565b5b906000526020600020906003020160020160006101000a81548163ffffffff021916908363ffffffff16021790555050565b6000600760009054906101000a900473ffffffffffffffffffffffffffffffffffffffff1673ffffffffffffffffffffffffffffffffffffffff1663e98b7f4d836040518263ffffffff1660e01b815260040161046891906119d4565b61014060405180830381865afa158015610486573d6000803e3d6000fd5b505050506040513d601f19601f820116820180604052508101906104aa9190611a30565b9091929394959697985090919293949596975090919293949596509091929394955090919293945090919293509091925090915090508091505061052483826040518060400160405280600581526020017f6b69747479000000000000000000000000000000000000000000000000000000815250610c96565b505050565b6004818154811061053957600080fd5b906000526020600020906003020160009150905080600001805461055c90611b3e565b80601f016020809104026020016040519081016040528092919081815260200182805461058890611b3e565b80156105d55780601f106105aa576101008083540402835291602001916105d5565b820191906000526020600020905b8154815290600101906020018083116105b857829003601f168201915b5050505050908060010154908060020160009054906101000a900463ffffffff16908060020160049054906101000a900463ffffffff16908060020160089054906101000a900461ffff169080600201600a9054906101000a900461ffff16905086565b610641610adb565b61064a57600080fd5b6000610654610ab2565b90508073ffffffffffffffffffffffffffffffffffffffff166108fc479081150290604051600060405180830381858888f1935050505015801561069c573d6000803e3d6000fd5b5050565b60606000600660008473ffffffffffffffffffffffffffffffffffffffff1673ffffffffffffffffffffffffffffffffffffffff1681526020019081526020016000205467ffffffffffffffff8111156106fd576106fc61173b565b5b60405190808252806020026020018201604052801561072b5781602001602082028036833780820191505090505b5090506000805b6004805490508110156107e7578473ffffffffffffffffffffffffffffffffffffffff166005600083815260200190815260200160002060009054906101000a900473ffffffffffffffffffffffffffffffffffffffff1673ffffffffffffffffffffffffffffffffffffffff16036107d457808383815181106107b9576107b86119a5565b5b60200260200101818152505081806107d090611b9e565b9250505b80806107df90611b9e565b915050610732565b508192505050919050565b60056020528060005260406000206000915054906101000a900473ffffffffffffffffffffffffffffffffffffffff1681565b61082d610adb565b61083657600080fd5b80600760006101000a81548173ffffffffffffffffffffffffffffffffffffffff021916908373ffffffffffffffffffffffffffffffffffffffff16021790555050565b6014828160048281548110610892576108916119a5565b5b906000526020600020906003020160020160009054906101000a900463ffffffff1663ffffffff1610156108c557600080fd5b836005600082815260200190815260200160002060009054906101000a900473ffffffffffffffffffffffffffffffffffffffff1673ffffffffffffffffffffffffffffffffffffffff163373ffffffffffffffffffffffffffffffffffffffff161461093157600080fd5b8360048681548110610946576109456119a5565b5b9060005260206000209060030201600101819055505050505050565b61096a610adb565b61097357600080fd5b600073ffffffffffffffffffffffffffffffffffffffff1660008054906101000a900473ffffffffffffffffffffffffffffffffffffffff1673ffffffffffffffffffffffffffffffffffffffff167f8be0079c531659141344cd1fd0a4f28419497f9722a3daafe3b4186f6b6457e060405160405180910390a360008060006101000a81548173ffffffffffffffffffffffffffffffffffffffff021916908373ffffffffffffffffffffffffffffffffffffffff160217905550565b6000600660003373ffffffffffffffffffffffffffffffffffffffff1673ffffffffffffffffffffffffffffffffffffffff1681526020019081526020016000205414610a7d57600080fd5b6000610a8882610e32565b9050606481610a979190611c15565b81610aa29190611c46565b9050610aae8282610e77565b5050565b60008060009054906101000a900473ffffffffffffffffffffffffffffffffffffffff16905090565b60008060009054906101000a900473ffffffffffffffffffffffffffffffffffffffff1673ffffffffffffffffffffffffffffffffffffffff163373ffffffffffffffffffffffffffffffffffffffff1614905090565b6002838160048281548110610b4a57610b496119a5565b5b906000526020600020906003020160020160009054906101000a900463ffffffff1663ffffffff161015610b7d57600080fd5b846005600082815260200190815260200160002060009054906101000a900473ffffffffffffffffffffffffffffffffffffffff1673ffffffffffffffffffffffffffffffffffffffff163373ffffffffffffffffffffffffffffffffffffffff1614610be957600080fd5b848460048881548110610bff57610bfe6119a5565b5b90600052602060002090600302016000019190610c1d929190611270565b50505050505050565b610c2e610adb565b610c3757600080fd5b8060088190555050565b610c49610adb565b610c5257600080fd5b610c5b816110f4565b50565b6000808284610c6d9190611c7a565b90508363ffffffff168163ffffffff161015610c8c57610c8b611cb4565b5b8091505092915050565b826005600082815260200190815260200160002060009054906101000a900473ffffffffffffffffffffffffffffffffffffffff1673ffffffffffffffffffffffffffffffffffffffff163373ffffffffffffffffffffffffffffffffffffffff1614610d0257600080fd5b600060048581548110610d1857610d176119a5565b5b90600052602060002090600302019050610d31816111ea565b610d3a57600080fd5b60025484610d489190611c15565b935060006002858360010154610d5e9190611ce3565b610d689190611d39565b9050604051602001610d7990611dc1565b6040516020818303038152906040528051906020012084604051602001610da09190611e07565b6040516020818303038152906040528051906020012003610de2576063606482610dca9190611c15565b82610dd59190611c46565b610ddf9190611ce3565b90505b610e216040518060400160405280600681526020017f4e6f4e616d65000000000000000000000000000000000000000000000000000081525082610e77565b610e2a82611211565b505050505050565b60008082604051602001610e469190611e07565b6040516020818303038152906040528051906020012060001c905060025481610e6f9190611c15565b915050919050565b60006040518060c00160405280848152602001838152602001600163ffffffff16815260200160035442610eab9190611ce3565b63ffffffff168152602001600061ffff168152602001600061ffff16815250905060048190806001815401808255809150506001900390600052602060002090600302016000909190919091506000820151816000019080519060200190610f149291906112f6565b506020820151816001015560408201518160020160006101000a81548163ffffffff021916908363ffffffff16021790555060608201518160020160046101000a81548163ffffffff021916908363ffffffff16021790555060808201518160020160086101000a81548161ffff021916908361ffff16021790555060a082015181600201600a6101000a81548161ffff021916908361ffff160217905550505060006001600480549050610fc99190611c46565b9050336005600083815260200190815260200160002060006101000a81548173ffffffffffffffffffffffffffffffffffffffff021916908373ffffffffffffffffffffffffffffffffffffffff1602179055506110706001600660003373ffffffffffffffffffffffffffffffffffffffff1673ffffffffffffffffffffffffffffffffffffffff1681526020019081526020016000205461124490919063ffffffff16565b600660003373ffffffffffffffffffffffffffffffffffffffff1673ffffffffffffffffffffffffffffffffffffffff168152602001908152602001600020819055507f88f026aacbbecc90c18411df4b1185fd8d9be2470f1962f192bf84a27d0704b78185856040516110e693929190611e1e565b60405180910390a150505050565b600073ffffffffffffffffffffffffffffffffffffffff168173ffffffffffffffffffffffffffffffffffffffff160361112d57600080fd5b8073ffffffffffffffffffffffffffffffffffffffff1660008054906101000a900473ffffffffffffffffffffffffffffffffffffffff1673ffffffffffffffffffffffffffffffffffffffff167f8be0079c531659141344cd1fd0a4f28419497f9722a3daafe3b4186f6b6457e060405160405180910390a3806000806101000a81548173ffffffffffffffffffffffffffffffffffffffff021916908373ffffffffffffffffffffffffffffffffffffffff16021790555050565b6000428260020160049054906101000a900463ffffffff1663ffffffff1611159050919050565b6003544261121f9190611ce3565b8160020160046101000a81548163ffffffff021916908363ffffffff16021790555050565b60008082846112539190611ce3565b90508381101561126657611265611cb4565b5b8091505092915050565b82805461127c90611b3e565b90600052602060002090601f01602090048101928261129e57600085556112e5565b82601f106112b757803560ff19168380011785556112e5565b828001600101855582156112e5579182015b828111156112e45782358255916020019190600101906112c9565b5b5090506112f2919061137c565b5090565b82805461130290611b3e565b90600052602060002090601f016020900481019282611324576000855561136b565b82601f1061133d57805160ff191683800117855561136b565b8280016001018555821561136b579182015b8281111561136a57825182559160200191906001019061134f565b5b509050611378919061137c565b5090565b5b8082111561139557600081600090555060010161137d565b5090565b6000604051905090565b600080fd5b600080fd5b6000819050919050565b6113c0816113ad565b81146113cb57600080fd5b50565b6000813590506113dd816113b7565b92915050565b6000602082840312156113f9576113f86113a3565b5b6000611407848285016113ce565b91505092915050565b60008060408385031215611427576114266113a3565b5b6000611435858286016113ce565b9250506020611446858286016113ce565b9150509250929050565b600081519050919050565b600082825260208201905092915050565b60005b8381101561148a57808201518184015260208101905061146f565b83811115611499576000848401525b50505050565b6000601f19601f8301169050919050565b60006114bb82611450565b6114c5818561145b565b93506114d581856020860161146c565b6114de8161149f565b840191505092915050565b6114f2816113ad565b82525050565b600063ffffffff82169050919050565b611511816114f8565b82525050565b600061ffff82169050919050565b61152e81611517565b82525050565b600060c082019050818103600083015261154e81896114b0565b905061155d60208301886114e9565b61156a6040830187611508565b6115776060830186611508565b6115846080830185611525565b61159160a0830184611525565b979650505050505050565b600073ffffffffffffffffffffffffffffffffffffffff82169050919050565b60006115c78261159c565b9050919050565b6115d7816115bc565b81146115e257600080fd5b50565b6000813590506115f4816115ce565b92915050565b6000602082840312156116105761160f6113a3565b5b600061161e848285016115e5565b91505092915050565b600081519050919050565b600082825260208201905092915050565b6000819050602082019050919050565b61165c816113ad565b82525050565b600061166e8383611653565b60208301905092915050565b6000602082019050919050565b600061169282611627565b61169c8185611632565b93506116a783611643565b8060005b838110156116d85781516116bf8882611662565b97506116ca8361167a565b9250506001810190506116ab565b5085935050505092915050565b600060208201905081810360008301526116ff8184611687565b905092915050565b611710816115bc565b82525050565b600060208201905061172b6000830184611707565b92915050565b600080fd5b600080fd5b7f4e487b7100000000000000000000000000000000000000000000000000000000600052604160045260246000fd5b6117738261149f565b810181811067ffffffffffffffff821117156117925761179161173b565b5b80604052505050565b60006117a5611399565b90506117b1828261176a565b919050565b600067ffffffffffffffff8211156117d1576117d061173b565b5b6117da8261149f565b9050602081019050919050565b82818337600083830152505050565b6000611809611804846117b6565b61179b565b90508281526020810184848401111561182557611824611736565b5b6118308482856117e7565b509392505050565b600082601f83011261184d5761184c611731565b5b813561185d8482602086016117f6565b91505092915050565b60006020828403121561187c5761187b6113a3565b5b600082013567ffffffffffffffff81111561189a576118996113a8565b5b6118a684828501611838565b91505092915050565b60008115159050919050565b6118c4816118af565b82525050565b60006020820190506118df60008301846118bb565b92915050565b600080fd5b600080fd5b60008083601f84011261190557611904611731565b5b8235905067ffffffffffffffff811115611922576119216118e5565b5b60208301915083600182028301111561193e5761193d6118ea565b5b9250929050565b60008060006040848603121561195e5761195d6113a3565b5b600061196c868287016113ce565b935050602084013567ffffffffffffffff81111561198d5761198c6113a8565b5b611999868287016118ef565b92509250509250925092565b7f4e487b7100000000000000000000000000000000000000000000000000000000600052603260045260246000fd5b60006020820190506119e960008301846114e9565b92915050565b6119f8816118af565b8114611a0357600080fd5b50565b600081519050611a15816119ef565b92915050565b600081519050611a2a816113b7565b92915050565b6000806000806000806000806000806101408b8d031215611a5457611a536113a3565b5b6000611a628d828e01611a06565b9a50506020611a738d828e01611a06565b9950506040611a848d828e01611a1b565b9850506060611a958d828e01611a1b565b9750506080611aa68d828e01611a1b565b96505060a0611ab78d828e01611a1b565b95505060c0611ac88d828e01611a1b565b94505060e0611ad98d828e01611a1b565b935050610100611aeb8d828e01611a1b565b925050610120611afd8d828e01611a1b565b9150509295989b9194979a5092959850565b7f4e487b7100000000000000000000000000000000000000000000000000000000600052602260045260246000fd5b60006002820490506001821680611b5657607f821691505b602082108103611b6957611b68611b0f565b5b50919050565b7f4e487b7100000000000000000000000000000000000000000000000000000000600052601160045260246000fd5b6000611ba9826113ad565b91507fffffffffffffffffffffffffffffffffffffffffffffffffffffffffffffffff8203611bdb57611bda611b6f565b5b600182019050919050565b7f4e487b7100000000000000000000000000000000000000000000000000000000600052601260045260246000fd5b6000611c20826113ad565b9150611c2b836113ad565b925082611c3b57611c3a611be6565b5b828206905092915050565b6000611c51826113ad565b9150611c5c836113ad565b925082821015611c6f57611c6e611b6f565b5b828203905092915050565b6000611c85826114f8565b9150611c90836114f8565b92508263ffffffff03821115611ca957611ca8611b6f565b5b828201905092915050565b7f4e487b7100000000000000000000000000000000000000000000000000000000600052600160045260246000fd5b6000611cee826113ad565b9150611cf9836113ad565b9250827fffffffffffffffffffffffffffffffffffffffffffffffffffffffffffffffff03821115611d2e57611d2d611b6f565b5b828201905092915050565b6000611d44826113ad565b9150611d4f836113ad565b925082611d5f57611d5e611be6565b5b828204905092915050565b600081905092915050565b7f6b69747479000000000000000000000000000000000000000000000000000000600082015250565b6000611dab600583611d6a565b9150611db682611d75565b600582019050919050565b6000611dcc82611d9e565b9150819050919050565b6000611de182611450565b611deb8185611d6a565b9350611dfb81856020860161146c565b80840191505092915050565b6000611e138284611dd6565b915081905092915050565b6000606082019050611e3360008301866114e9565b8181036020830152611e4581856114b0565b9050611e5460408301846114e9565b94935050505056fea264697066735822122038993ac68ddceca27419540720174217da1a59787b7bd3b8e93d25eb2d71a8a164736f6c634300080d0033",
  "immutableReferences": {},
  "source": "// SPDX-License-Identifier: UNLICENSED\npragma solidity >=0.4.22 <0.9.0;\n\nimport \"./ZombieFeeding.sol\";\nimport \"./SafeMath.sol\";\n\ncontract ZombieHelper is ZombieFeeding {\n\n  using SafeMath32 for uint32;\n  uint levelUpFee = 0.001 ether;\n\n  modifier aboveLevel(uint _level, uint _zombieId) {\n    require(zombies[_zombieId].level >= _level);\n    _;\n  }\n\n  function withdraw() external onlyOwner {\n    address _owner = owner();\n    payable(_owner).transfer(address(this).balance);\n  }\n\n  function setLevelUpFee(uint _fee) external onlyOwner {\n    levelUpFee = _fee;\n  }\n\n  function levelUp(uint _zombieId) external payable {\n    require(msg.value == levelUpFee);\n    zombies[_zombieId].level = zombies[_zombieId].level.add(1);\n  }\n\n  function changeName(uint _zombieId, string calldata _newName) external aboveLevel(2, _zombieId) onlyOwnerOf(_zombieId) {\n    zombies[_zombieId].name = _newName;\n  }\n\n  function changeDna(uint _zombieId, uint _newDna) external aboveLevel(20, _zombieId) onlyOwnerOf(_zombieId) {\n    zombies[_zombieId].dna = _newDna;\n  }\n\n  function getZombiesByOwner(address _owner) external view returns(uint[] memory) {\n    uint[] memory result = new uint[](ownerZombieCount[_owner]);\n    uint counter = 0;\n    for (uint i = 0; i < zombies.length; i++) {\n      if (zombieToOwner[i] == _owner) {\n        result[counter] = i;\n        counter++;\n      }\n    }\n    return result;\n  }\n\n}",
  "sourcePath": "/home/paulo/source/personal/blockchain/cryptozombies/src/contracts/ZombieHelper.sol",
  "compiler": {
    "name": "solc",
    "version": "0.8.13+commit.abaa5c0e.Emscripten.clang"
  },
  "schemaVersion": "3.4.6",
  "updatedAt": "2022-04-13T14:11:17.837Z",
  "networkType": "ethereum",
  "devdoc": {
    "kind": "dev",
    "methods": {
      "isOwner()": {
        "returns": {
          "_0": "true if `msg.sender` is the owner of the contract."
        }
      },
      "owner()": {
        "returns": {
          "_0": "the address of the owner."
        }
      },
      "renounceOwnership()": {
        "details": "Allows the current owner to relinquish control of the contract."
      },
      "transferOwnership(address)": {
        "details": "Allows the current owner to transfer control of the contract to a newOwner.",
        "params": {
          "newOwner": "The address to transfer ownership to."
        }
      }
    },
    "version": 1
  },
  "userdoc": {
    "kind": "user",
    "methods": {
      "renounceOwnership()": {
        "notice": "Renouncing to ownership will leave the contract without an owner. It will not be possible to call the functions with the `onlyOwner` modifier anymore."
      }
    },
    "version": 1
  }
}